{
  "contractName": "DecentralBank",
  "abi": [
    {
      "inputs": [
        {
          "internalType": "contract RWD",
          "name": "_rwd",
          "type": "address"
        },
        {
          "internalType": "contract Tether",
          "name": "_tether",
          "type": "address"
        }
      ],
      "stateMutability": "nonpayable",
      "type": "constructor"
    },
    {
      "inputs": [
        {
          "internalType": "address",
          "name": "",
          "type": "address"
        }
      ],
      "name": "hasStaked",
      "outputs": [
        {
          "internalType": "bool",
          "name": "",
          "type": "bool"
        }
      ],
      "stateMutability": "view",
      "type": "function",
      "constant": true
    },
    {
      "inputs": [
        {
          "internalType": "address",
          "name": "",
          "type": "address"
        }
      ],
      "name": "isStaked",
      "outputs": [
        {
          "internalType": "bool",
          "name": "",
          "type": "bool"
        }
      ],
      "stateMutability": "view",
      "type": "function",
      "constant": true
    },
    {
      "inputs": [],
      "name": "name",
      "outputs": [
        {
          "internalType": "string",
          "name": "",
          "type": "string"
        }
      ],
      "stateMutability": "view",
      "type": "function",
      "constant": true
    },
    {
      "inputs": [],
      "name": "owner",
      "outputs": [
        {
          "internalType": "address",
          "name": "",
          "type": "address"
        }
      ],
      "stateMutability": "view",
      "type": "function",
      "constant": true
    },
    {
      "inputs": [
        {
          "internalType": "address",
          "name": "",
          "type": "address"
        }
      ],
      "name": "rewardBalance",
      "outputs": [
        {
          "internalType": "uint256",
          "name": "",
          "type": "uint256"
        }
      ],
      "stateMutability": "view",
      "type": "function",
      "constant": true
    },
    {
      "inputs": [],
      "name": "rwd",
      "outputs": [
        {
          "internalType": "contract RWD",
          "name": "",
          "type": "address"
        }
      ],
      "stateMutability": "view",
      "type": "function",
      "constant": true
    },
    {
      "inputs": [
        {
          "internalType": "uint256",
          "name": "",
          "type": "uint256"
        }
      ],
      "name": "stakers",
      "outputs": [
        {
          "internalType": "address",
          "name": "",
          "type": "address"
        }
      ],
      "stateMutability": "view",
      "type": "function",
      "constant": true
    },
    {
      "inputs": [
        {
          "internalType": "address",
          "name": "",
          "type": "address"
        }
      ],
      "name": "stakingBalance",
      "outputs": [
        {
          "internalType": "uint256",
          "name": "",
          "type": "uint256"
        }
      ],
      "stateMutability": "view",
      "type": "function",
      "constant": true
    },
    {
      "inputs": [],
      "name": "tether",
      "outputs": [
        {
          "internalType": "contract Tether",
          "name": "",
          "type": "address"
        }
      ],
      "stateMutability": "view",
      "type": "function",
      "constant": true
    },
    {
      "inputs": [
        {
          "internalType": "uint256",
          "name": "_amount",
          "type": "uint256"
        }
      ],
      "name": "stakingTokens",
      "outputs": [],
      "stateMutability": "nonpayable",
      "type": "function"
    },
    {
      "inputs": [],
      "name": "issueTokens",
      "outputs": [],
      "stateMutability": "nonpayable",
      "type": "function"
    },
    {
      "inputs": [
        {
          "internalType": "address",
          "name": "_stakers",
          "type": "address"
        }
      ],
      "name": "deleteStakers",
      "outputs": [],
      "stateMutability": "nonpayable",
      "type": "function"
    },
    {
      "inputs": [
        {
          "internalType": "uint256",
          "name": "_amount",
          "type": "uint256"
        }
      ],
      "name": "unStakingTokens",
      "outputs": [],
      "stateMutability": "nonpayable",
      "type": "function"
    },
    {
      "inputs": [],
      "name": "unStakingTokensAll",
      "outputs": [],
      "stateMutability": "nonpayable",
      "type": "function"
    }
  ],
  "bytecode": "0x60806040526040518060400160405280600e81526020017f446563656e7472616c2042616e6b000000000000000000000000000000000000815250600190816100489190610356565b5034801561005557600080fd5b50604051611b0b380380611b0b833981810160405281019061007791906104db565b81600360006101000a81548173ffffffffffffffffffffffffffffffffffffffff021916908373ffffffffffffffffffffffffffffffffffffffff16021790555080600260006101000a81548173ffffffffffffffffffffffffffffffffffffffff021916908373ffffffffffffffffffffffffffffffffffffffff160217905550505061051b565b600081519050919050565b7f4e487b7100000000000000000000000000000000000000000000000000000000600052604160045260246000fd5b7f4e487b7100000000000000000000000000000000000000000000000000000000600052602260045260246000fd5b6000600282049050600182168061018157607f821691505b6020821081036101945761019361013a565b5b50919050565b60008190508160005260206000209050919050565b60006020601f8301049050919050565b60008160020a8302905092915050565b6000600883026101ff7fffffffffffffffffffffffffffffffffffffffffffffffffffffffffffffffff826101bf565b61020986836101bf565b95508019841693508086168417925050509392505050565b6000819050919050565b6000819050919050565b600061025061024b61024684610221565b61022b565b610221565b9050919050565b6000819050919050565b61026a83610235565b61027e61027682610257565b8484546101cf565b825550505050565b600090565b610293610286565b61029e818484610261565b505050565b5b818110156102c2576102b760008261028b565b6001810190506102a4565b5050565b601f821115610307576102d88161019a565b6102e1846101af565b810160208510156102f0578190505b6103046102fc856101af565b8301826102a3565b50505b505050565b60008160020a8304905092915050565b600061032d6000198460080261030c565b1980831691505092915050565b6000610346838361031c565b9150826002028217905092915050565b61035f82610100565b67ffffffffffffffff8111156103785761037761010b565b5b6103828254610169565b61038d8282856102c6565b600060209050601f8311600181146103c057600084156103ae578287015190505b6103b8858261033a565b865550610420565b601f1984166103ce8661019a565b60005b828110156103f6578489015182556001820191506020850194506020810190506103d1565b86831015610413578489015161040f601f89168261031c565b8355505b6001600288020188555050505b505050505050565b600080fd5b600073ffffffffffffffffffffffffffffffffffffffff82169050919050565b60006104588261042d565b9050919050565b600061046a8261044d565b9050919050565b61047a8161045f565b811461048557600080fd5b50565b60008151905061049781610471565b92915050565b60006104a88261044d565b9050919050565b6104b88161049d565b81146104c357600080fd5b50565b6000815190506104d5816104af565b92915050565b600080604083850312156104f2576104f1610428565b5b600061050085828601610488565b9250506020610511858286016104c6565b9150509250929050565b6115e18061052a6000396000f3fe608060405234801561001057600080fd5b5060043610610107576000357c0100000000000000000000000000000000000000000000000000000000900480636177fd18116100a9578063c93c8f3411610083578063c93c8f3414610256578063f5daf0a514610286578063f7503d77146102a2578063fd5e6dd1146102ac57610107565b80636177fd18146101d857806367b40cf7146102085780638da5cb5b1461023857610107565b8063344e5e34116100e5578063344e5e341461016457806345bc78ab146101805780635efc071a146101b057806360ab5852146101ce57610107565b806306fdde031461010c5780630b77707a1461012a5780631a8972d314610146575b600080fd5b6101146102dc565b6040516101219190610fea565b60405180910390f35b610144600480360381019061013f919061106f565b61036a565b005b61014e6104f4565b60405161015b91906110fb565b60405180910390f35b61017e6004803603810190610179919061114c565b61051a565b005b61019a6004803603810190610195919061106f565b610812565b6040516101a79190611188565b60405180910390f35b6101b861082a565b6040516101c591906111c4565b60405180910390f35b6101d6610850565b005b6101f260048036038101906101ed919061106f565b6109cc565b6040516101ff91906111fa565b60405180910390f35b610222600480360381019061021d919061106f565b6109ec565b60405161022f9190611188565b60405180910390f35b610240610a04565b60405161024d9190611224565b60405180910390f35b610270600480360381019061026b919061106f565b610a28565b60405161027d91906111fa565b60405180910390f35b6102a0600480360381019061029b919061114c565b610a48565b005b6102aa610d19565b005b6102c660048036038101906102c1919061114c565b610f1b565b6040516102d39190611224565b60405180910390f35b600180546102e99061126e565b80601f01602080910402602001604051908101604052809291908181526020018280546103159061126e565b80156103625780601f1061033757610100808354040283529160200191610362565b820191906000526020600020905b81548152906001019060200180831161034557829003601f168201915b505050505081565b60005b6008805490508110156104f0578173ffffffffffffffffffffffffffffffffffffffff16600882815481106103a5576103a461129f565b5b9060005260206000200160009054906101000a900473ffffffffffffffffffffffffffffffffffffffff1673ffffffffffffffffffffffffffffffffffffffff16036104e357600860016008805490506103ff91906112fd565b815481106104105761040f61129f565b5b9060005260206000200160009054906101000a900473ffffffffffffffffffffffffffffffffffffffff166008828154811061044f5761044e61129f565b5b9060005260206000200160006101000a81548173ffffffffffffffffffffffffffffffffffffffff021916908373ffffffffffffffffffffffffffffffffffffffff16021790555060088054806104a9576104a8611331565b5b6001900381819060005260206000200160006101000a81549073ffffffffffffffffffffffffffffffffffffffff021916905590556104f0565b808060010191505061036d565b5050565b600360009054906101000a900473ffffffffffffffffffffffffffffffffffffffff1681565b6000811161055d576040517f08c379a0000000000000000000000000000000000000000000000000000000008152600401610554906113ac565b60405180910390fd5b600260009054906101000a900473ffffffffffffffffffffffffffffffffffffffff1673ffffffffffffffffffffffffffffffffffffffff166323b872dd3330846040518463ffffffff167c01000000000000000000000000000000000000000000000000000000000281526004016105d8939291906113cc565b6020604051808303816000875af11580156105f7573d6000803e3d6000fd5b505050506040513d601f19601f8201168201806040525081019061061b919061142f565b5080600460003373ffffffffffffffffffffffffffffffffffffffff1673ffffffffffffffffffffffffffffffffffffffff16815260200190815260200160002054610667919061145c565b600460003373ffffffffffffffffffffffffffffffffffffffff1673ffffffffffffffffffffffffffffffffffffffff16815260200190815260200160002081905550600560003373ffffffffffffffffffffffffffffffffffffffff1673ffffffffffffffffffffffffffffffffffffffff16815260200190815260200160002060009054906101000a900460ff1661075f576008339080600181540180825580915050600190039060005260206000200160009091909190916101000a81548173ffffffffffffffffffffffffffffffffffffffff021916908373ffffffffffffffffffffffffffffffffffffffff1602179055505b6001600660003373ffffffffffffffffffffffffffffffffffffffff1673ffffffffffffffffffffffffffffffffffffffff16815260200190815260200160002060006101000a81548160ff0219169083151502179055506001600560003373ffffffffffffffffffffffffffffffffffffffff1673ffffffffffffffffffffffffffffffffffffffff16815260200190815260200160002060006101000a81548160ff02191690831515021790555050565b60046020528060005260406000206000915090505481565b600260009054906101000a900473ffffffffffffffffffffffffffffffffffffffff1681565b60005b6008805490508110156109c9576000600882815481106108765761087561129f565b5b9060005260206000200160009054906101000a900473ffffffffffffffffffffffffffffffffffffffff16905060006009600460008473ffffffffffffffffffffffffffffffffffffffff1673ffffffffffffffffffffffffffffffffffffffff168152602001908152602001600020546108f191906114bf565b905060008111156109ba57600360009054906101000a900473ffffffffffffffffffffffffffffffffffffffff1673ffffffffffffffffffffffffffffffffffffffff1663a9059cbb83836040518363ffffffff167c01000000000000000000000000000000000000000000000000000000000281526004016109759291906114f0565b6020604051808303816000875af1158015610994573d6000803e3d6000fd5b505050506040513d601f19601f820116820180604052508101906109b8919061142f565b505b50508080600101915050610853565b50565b60066020528060005260406000206000915054906101000a900460ff1681565b60076020528060005260406000206000915090505481565b60008054906101000a900473ffffffffffffffffffffffffffffffffffffffff1681565b60056020528060005260406000206000915054906101000a900460ff1681565b600460003373ffffffffffffffffffffffffffffffffffffffff1673ffffffffffffffffffffffffffffffffffffffff16815260200190815260200160002054811115610aca576040517f08c379a0000000000000000000000000000000000000000000000000000000008152600401610ac19061158b565b60405180910390fd5b600260009054906101000a900473ffffffffffffffffffffffffffffffffffffffff1673ffffffffffffffffffffffffffffffffffffffff1663a9059cbb33836040518363ffffffff167c0100000000000000000000000000000000000000000000000000000000028152600401610b439291906114f0565b6020604051808303816000875af1158015610b62573d6000803e3d6000fd5b505050506040513d601f19601f82011682018060405250810190610b86919061142f565b5080600460003373ffffffffffffffffffffffffffffffffffffffff1673ffffffffffffffffffffffffffffffffffffffff16815260200190815260200160002054610bd291906112fd565b600460003373ffffffffffffffffffffffffffffffffffffffff1673ffffffffffffffffffffffffffffffffffffffff168152602001908152602001600020819055506000600460003373ffffffffffffffffffffffffffffffffffffffff1673ffffffffffffffffffffffffffffffffffffffff1681526020019081526020016000205403610d16576000600660003373ffffffffffffffffffffffffffffffffffffffff1673ffffffffffffffffffffffffffffffffffffffff16815260200190815260200160002060006101000a81548160ff0219169083151502179055506000600560003373ffffffffffffffffffffffffffffffffffffffff1673ffffffffffffffffffffffffffffffffffffffff16815260200190815260200160002060006101000a81548160ff021916908315150217905550610d153361036a565b5b50565b6000600460003373ffffffffffffffffffffffffffffffffffffffff1673ffffffffffffffffffffffffffffffffffffffff168152602001908152602001600020549050600260009054906101000a900473ffffffffffffffffffffffffffffffffffffffff1673ffffffffffffffffffffffffffffffffffffffff1663a9059cbb33836040518363ffffffff167c0100000000000000000000000000000000000000000000000000000000028152600401610dd69291906114f0565b6020604051808303816000875af1158015610df5573d6000803e3d6000fd5b505050506040513d601f19601f82011682018060405250810190610e19919061142f565b506000600460003373ffffffffffffffffffffffffffffffffffffffff1673ffffffffffffffffffffffffffffffffffffffff168152602001908152602001600020819055506000600660003373ffffffffffffffffffffffffffffffffffffffff1673ffffffffffffffffffffffffffffffffffffffff16815260200190815260200160002060006101000a81548160ff0219169083151502179055506000600560003373ffffffffffffffffffffffffffffffffffffffff1673ffffffffffffffffffffffffffffffffffffffff16815260200190815260200160002060006101000a81548160ff021916908315150217905550610f183361036a565b50565b60088181548110610f2b57600080fd5b906000526020600020016000915054906101000a900473ffffffffffffffffffffffffffffffffffffffff1681565b600081519050919050565b600082825260208201905092915050565b60005b83811015610f94578082015181840152602081019050610f79565b60008484015250505050565b6000601f19601f8301169050919050565b6000610fbc82610f5a565b610fc68185610f65565b9350610fd6818560208601610f76565b610fdf81610fa0565b840191505092915050565b600060208201905081810360008301526110048184610fb1565b905092915050565b600080fd5b600073ffffffffffffffffffffffffffffffffffffffff82169050919050565b600061103c82611011565b9050919050565b61104c81611031565b811461105757600080fd5b50565b60008135905061106981611043565b92915050565b6000602082840312156110855761108461100c565b5b60006110938482850161105a565b91505092915050565b6000819050919050565b60006110c16110bc6110b784611011565b61109c565b611011565b9050919050565b60006110d3826110a6565b9050919050565b60006110e5826110c8565b9050919050565b6110f5816110da565b82525050565b600060208201905061111060008301846110ec565b92915050565b6000819050919050565b61112981611116565b811461113457600080fd5b50565b60008135905061114681611120565b92915050565b6000602082840312156111625761116161100c565b5b600061117084828501611137565b91505092915050565b61118281611116565b82525050565b600060208201905061119d6000830184611179565b92915050565b60006111ae826110c8565b9050919050565b6111be816111a3565b82525050565b60006020820190506111d960008301846111b5565b92915050565b60008115159050919050565b6111f4816111df565b82525050565b600060208201905061120f60008301846111eb565b92915050565b61121e81611031565b82525050565b60006020820190506112396000830184611215565b92915050565b7f4e487b7100000000000000000000000000000000000000000000000000000000600052602260045260246000fd5b6000600282049050600182168061128657607f821691505b6020821081036112995761129861123f565b5b50919050565b7f4e487b7100000000000000000000000000000000000000000000000000000000600052603260045260246000fd5b7f4e487b7100000000000000000000000000000000000000000000000000000000600052601160045260246000fd5b600061130882611116565b915061131383611116565b925082820390508181111561132b5761132a6112ce565b5b92915050565b7f4e487b7100000000000000000000000000000000000000000000000000000000600052603160045260246000fd5b7f616d6f756e742063616e6e6f7420626520300000000000000000000000000000600082015250565b6000611396601283610f65565b91506113a182611360565b602082019050919050565b600060208201905081810360008301526113c581611389565b9050919050565b60006060820190506113e16000830186611215565b6113ee6020830185611215565b6113fb6040830184611179565b949350505050565b61140c816111df565b811461141757600080fd5b50565b60008151905061142981611403565b92915050565b6000602082840312156114455761144461100c565b5b60006114538482850161141a565b91505092915050565b600061146782611116565b915061147283611116565b925082820190508082111561148a576114896112ce565b5b92915050565b7f4e487b7100000000000000000000000000000000000000000000000000000000600052601260045260246000fd5b60006114ca82611116565b91506114d583611116565b9250826114e5576114e4611490565b5b828204905092915050565b60006040820190506115056000830185611215565b6115126020830184611179565b9392505050565b7f596f752063616e6e6f7420756e7374616b65206d6f7265207468656e20796f7560008201527f207374616b650000000000000000000000000000000000000000000000000000602082015250565b6000611575602683610f65565b915061158082611519565b604082019050919050565b600060208201905081810360008301526115a481611568565b905091905056fea26469706673582212203e5e2236dc7bdb7de6a42a70fa73f44b705c131d773a2ed613b08918b314d8ac64736f6c634300081b0033",
  "immutableReferences": {},
  "source": "// SPDX-License-Identifier: MIT\npragma solidity >=0.4.22 <0.9.0;\n\nimport './RWD.sol';\nimport './Tether.sol';\n\ncontract DecentralBank {\n  address public owner;\n  string public name = \"Decentral Bank\";\n  Tether public tether;\n  RWD public rwd;\n\n  constructor(RWD _rwd, Tether _tether) {\n    rwd = _rwd;\n    tether = _tether;\n  }\n\n  mapping(address => uint) public stakingBalance;\n  mapping(address => bool) public hasStaked;\n  mapping(address => bool) public isStaked;\n  mapping(address => uint) public rewardBalance;\n  address[] public stakers;\n\n  function stakingTokens(uint _amount) public {\n\n    require(_amount > 0, \"amount cannot be 0\");\n    \n    tether.transferFrom(msg.sender, address(this), _amount);\n\n    stakingBalance[msg.sender] = stakingBalance[msg.sender] + _amount;\n    \n    {/*\n           ,        \n    */}\n    if(!hasStaked[msg.sender]) { \n      stakers.push(msg.sender);  \n    }\n\n    isStaked[msg.sender] = true;\n    hasStaked[msg.sender] = true;\n  }\n\n  // TOKEN DISTRIBUTION SYSTEM ( )\n  // function issueTokens() public {\n  //   // prompt  gpt:      (   timestamp    24    )\n  //   // ( ) -     1  1\n  //   {/*\n  //       ,       24 ,      \n  //   */}\n  //   if (hasStaked[msg.sender] == true) {\n  //     rewardBalance[msg.sender] += 10; \n  //   }\n    \n  // }\n\n  function issueTokens() public {\n   // reuire the owner to issue tokens only\n  //  require(msg.sender == owner, \"caller must be the owner\");\n\n   // \n   for(uint i = 0; i < stakers.length; i++) {\n    address recipient = stakers[i];\n    uint balance = stakingBalance[recipient] / 9;\n    if (balance > 0) {\n      rwd.transfer(recipient, balance);\n    }\n   }\n  }\n\n  function deleteStakers(address _stakers) public  {\n    for (uint256 i = 0; i < stakers.length; i++) {\n      if (stakers[i] == _stakers) {\n        //      \n        stakers[i] = stakers[stakers.length - 1];\n        //   \n        stakers.pop();\n        break; //     \n      }\n    }\n  }\n\n  function unStakingTokens(uint _amount) public {\n    require(_amount <= stakingBalance[msg.sender], \"You cannot unstake more then you stake\");\n\n    tether.transfer(msg.sender, _amount);\n\n    stakingBalance[msg.sender] = stakingBalance[msg.sender] - _amount;\n\n    if (stakingBalance[msg.sender] == 0) {\n      isStaked[msg.sender] = false;\n      hasStaked[msg.sender] = false;\n      deleteStakers(msg.sender);\n    }\n\n  }\n\n\n  function unStakingTokensAll() public {\n    // require(_amount <= stakingBalance[msg.sender], \"You cannot unstake more then you stake\");\n    uint balance = stakingBalance[msg.sender];\n\n    // address payable _to = payable(msg.sender);\n    // tether.transferFrom(address(this), msg.sender, _amount);\n    tether.transfer(msg.sender, balance);\n\n    stakingBalance[msg.sender] = 0;\n\n    {/*\n            ,      \n    */}\n    isStaked[msg.sender] = false;\n    hasStaked[msg.sender] = false;\n    deleteStakers(msg.sender);\n  }\n}\n",
  "sourcePath": "D:\\Artem\\Dev\\2024\\defi-staking\\src\\contracts\\DecentralBank.sol",
  "compiler": {
    "name": "solc",
    "version": "0.8.27+commit.40a35a09.Emscripten.clang"
  },
  "schemaVersion": "3.4.16",
  "updatedAt": "2024-09-19T15:09:02.684Z",
  "networkType": "ethereum",
  "devdoc": {
    "kind": "dev",
    "methods": {},
    "version": 1
  },
  "userdoc": {
    "kind": "user",
    "methods": {},
    "version": 1
  }
}