{
  "contractName": "DecentralBank",
  "abi": [
    {
      "inputs": [
        {
          "internalType": "contract RWD",
          "name": "_rwd",
          "type": "address"
        },
        {
          "internalType": "contract Tether",
          "name": "_tether",
          "type": "address"
        }
      ],
      "stateMutability": "nonpayable",
      "type": "constructor"
    },
    {
      "inputs": [
        {
          "internalType": "address",
          "name": "",
          "type": "address"
        }
      ],
      "name": "hasStaked",
      "outputs": [
        {
          "internalType": "bool",
          "name": "",
          "type": "bool"
        }
      ],
      "stateMutability": "view",
      "type": "function",
      "constant": true
    },
    {
      "inputs": [
        {
          "internalType": "address",
          "name": "",
          "type": "address"
        }
      ],
      "name": "isStaked",
      "outputs": [
        {
          "internalType": "bool",
          "name": "",
          "type": "bool"
        }
      ],
      "stateMutability": "view",
      "type": "function",
      "constant": true
    },
    {
      "inputs": [],
      "name": "name",
      "outputs": [
        {
          "internalType": "string",
          "name": "",
          "type": "string"
        }
      ],
      "stateMutability": "view",
      "type": "function",
      "constant": true
    },
    {
      "inputs": [],
      "name": "owner",
      "outputs": [
        {
          "internalType": "address",
          "name": "",
          "type": "address"
        }
      ],
      "stateMutability": "view",
      "type": "function",
      "constant": true
    },
    {
      "inputs": [
        {
          "internalType": "address",
          "name": "",
          "type": "address"
        }
      ],
      "name": "rewardBalance",
      "outputs": [
        {
          "internalType": "uint256",
          "name": "",
          "type": "uint256"
        }
      ],
      "stateMutability": "view",
      "type": "function",
      "constant": true
    },
    {
      "inputs": [],
      "name": "rwd",
      "outputs": [
        {
          "internalType": "contract RWD",
          "name": "",
          "type": "address"
        }
      ],
      "stateMutability": "view",
      "type": "function",
      "constant": true
    },
    {
      "inputs": [
        {
          "internalType": "uint256",
          "name": "",
          "type": "uint256"
        }
      ],
      "name": "stakers",
      "outputs": [
        {
          "internalType": "address",
          "name": "",
          "type": "address"
        }
      ],
      "stateMutability": "view",
      "type": "function",
      "constant": true
    },
    {
      "inputs": [
        {
          "internalType": "address",
          "name": "",
          "type": "address"
        }
      ],
      "name": "stakingBalance",
      "outputs": [
        {
          "internalType": "uint256",
          "name": "",
          "type": "uint256"
        }
      ],
      "stateMutability": "view",
      "type": "function",
      "constant": true
    },
    {
      "inputs": [],
      "name": "tether",
      "outputs": [
        {
          "internalType": "contract Tether",
          "name": "",
          "type": "address"
        }
      ],
      "stateMutability": "view",
      "type": "function",
      "constant": true
    },
    {
      "inputs": [
        {
          "internalType": "uint256",
          "name": "_amount",
          "type": "uint256"
        }
      ],
      "name": "stakingTokens",
      "outputs": [],
      "stateMutability": "nonpayable",
      "type": "function"
    },
    {
      "inputs": [],
      "name": "issueTokens",
      "outputs": [],
      "stateMutability": "nonpayable",
      "type": "function"
    },
    {
      "inputs": [],
      "name": "tokenDistribution",
      "outputs": [],
      "stateMutability": "nonpayable",
      "type": "function"
    },
    {
      "inputs": [
        {
          "internalType": "address",
          "name": "_stakers",
          "type": "address"
        }
      ],
      "name": "deleteStakers",
      "outputs": [],
      "stateMutability": "nonpayable",
      "type": "function"
    },
    {
      "inputs": [
        {
          "internalType": "uint256",
          "name": "_amount",
          "type": "uint256"
        }
      ],
      "name": "unStakingTokens",
      "outputs": [],
      "stateMutability": "nonpayable",
      "type": "function"
    },
    {
      "inputs": [],
      "name": "unStakingTokensAll",
      "outputs": [],
      "stateMutability": "nonpayable",
      "type": "function"
    }
  ],
  "bytecode": "0x60806040526040518060400160405280600e81526020017f446563656e7472616c2042616e6b000000000000000000000000000000000000815250600190816100489190610356565b5034801561005557600080fd5b50604051611d9e380380611d9e833981810160405281019061007791906104db565b81600360006101000a81548173ffffffffffffffffffffffffffffffffffffffff021916908373ffffffffffffffffffffffffffffffffffffffff16021790555080600260006101000a81548173ffffffffffffffffffffffffffffffffffffffff021916908373ffffffffffffffffffffffffffffffffffffffff160217905550505061051b565b600081519050919050565b7f4e487b7100000000000000000000000000000000000000000000000000000000600052604160045260246000fd5b7f4e487b7100000000000000000000000000000000000000000000000000000000600052602260045260246000fd5b6000600282049050600182168061018157607f821691505b6020821081036101945761019361013a565b5b50919050565b60008190508160005260206000209050919050565b60006020601f8301049050919050565b60008160020a8302905092915050565b6000600883026101ff7fffffffffffffffffffffffffffffffffffffffffffffffffffffffffffffffff826101bf565b61020986836101bf565b95508019841693508086168417925050509392505050565b6000819050919050565b6000819050919050565b600061025061024b61024684610221565b61022b565b610221565b9050919050565b6000819050919050565b61026a83610235565b61027e61027682610257565b8484546101cf565b825550505050565b600090565b610293610286565b61029e818484610261565b505050565b5b818110156102c2576102b760008261028b565b6001810190506102a4565b5050565b601f821115610307576102d88161019a565b6102e1846101af565b810160208510156102f0578190505b6103046102fc856101af565b8301826102a3565b50505b505050565b60008160020a8304905092915050565b600061032d6000198460080261030c565b1980831691505092915050565b6000610346838361031c565b9150826002028217905092915050565b61035f82610100565b67ffffffffffffffff8111156103785761037761010b565b5b6103828254610169565b61038d8282856102c6565b600060209050601f8311600181146103c057600084156103ae578287015190505b6103b8858261033a565b865550610420565b601f1984166103ce8661019a565b60005b828110156103f6578489015182556001820191506020850194506020810190506103d1565b86831015610413578489015161040f601f89168261031c565b8355505b6001600288020188555050505b505050505050565b600080fd5b600073ffffffffffffffffffffffffffffffffffffffff82169050919050565b60006104588261042d565b9050919050565b600061046a8261044d565b9050919050565b61047a8161045f565b811461048557600080fd5b50565b60008151905061049781610471565b92915050565b60006104a88261044d565b9050919050565b6104b88161049d565b81146104c357600080fd5b50565b6000815190506104d5816104af565b92915050565b600080604083850312156104f2576104f1610428565b5b600061050085828601610488565b9250506020610511858286016104c6565b9150509250929050565b6118748061052a6000396000f3fe608060405234801561001057600080fd5b5060043610610112576000357c01000000000000000000000000000000000000000000000000000000009004806360ab5852116100b4578063c93c8f3411610083578063c93c8f341461026b578063f5daf0a51461029b578063f7503d77146102b7578063fd5e6dd1146102c157610112565b806360ab5852146101e35780636177fd18146101ed57806367b40cf71461021d5780638da5cb5b1461024d57610112565b80631a8972d3116100f05780631a8972d31461015b578063344e5e341461017957806345bc78ab146101955780635efc071a146101c557610112565b806306fdde031461011757806308a6077c146101355780630b77707a1461013f575b600080fd5b61011f6102f1565b60405161012c919061127d565b60405180910390f35b61013d61037f565b005b61015960048036038101906101549190611302565b61047b565b005b610163610605565b604051610170919061138e565b60405180910390f35b610193600480360381019061018e91906113df565b61062b565b005b6101af60048036038101906101aa9190611302565b61092b565b6040516101bc919061141b565b60405180910390f35b6101cd610943565b6040516101da9190611457565b60405180910390f35b6101eb610969565b005b61020760048036038101906102029190611302565b610c5f565b604051610214919061148d565b60405180910390f35b61023760048036038101906102329190611302565b610c7f565b604051610244919061141b565b60405180910390f35b610255610c97565b60405161026291906114b7565b60405180910390f35b61028560048036038101906102809190611302565b610cbb565b604051610292919061148d565b60405180910390f35b6102b560048036038101906102b091906113df565b610cdb565b005b6102bf610fac565b005b6102db60048036038101906102d691906113df565b6111ae565b6040516102e891906114b7565b60405180910390f35b600180546102fe90611501565b80601f016020809104026020016040519081016040528092919081815260200182805461032a90611501565b80156103775780601f1061034c57610100808354040283529160200191610377565b820191906000526020600020905b81548152906001019060200180831161035a57829003601f168201915b505050505081565b60011515600560003373ffffffffffffffffffffffffffffffffffffffff1673ffffffffffffffffffffffffffffffffffffffff16815260200190815260200160002060009054906101000a900460ff16151503610479576009600460003373ffffffffffffffffffffffffffffffffffffffff1673ffffffffffffffffffffffffffffffffffffffff168152602001908152602001600020546104239190611590565b600760003373ffffffffffffffffffffffffffffffffffffffff1673ffffffffffffffffffffffffffffffffffffffff168152602001908152602001600020600082825461047191906115c1565b925050819055505b565b60005b600880549050811015610601578173ffffffffffffffffffffffffffffffffffffffff16600882815481106104b6576104b56115f5565b5b9060005260206000200160009054906101000a900473ffffffffffffffffffffffffffffffffffffffff1673ffffffffffffffffffffffffffffffffffffffff16036105f457600860016008805490506105109190611624565b81548110610521576105206115f5565b5b9060005260206000200160009054906101000a900473ffffffffffffffffffffffffffffffffffffffff16600882815481106105605761055f6115f5565b5b9060005260206000200160006101000a81548173ffffffffffffffffffffffffffffffffffffffff021916908373ffffffffffffffffffffffffffffffffffffffff16021790555060088054806105ba576105b9611658565b5b6001900381819060005260206000200160006101000a81549073ffffffffffffffffffffffffffffffffffffffff02191690559055610601565b808060010191505061047e565b5050565b600360009054906101000a900473ffffffffffffffffffffffffffffffffffffffff1681565b6000811161066e576040517f08c379a0000000000000000000000000000000000000000000000000000000008152600401610665906116d3565b60405180910390fd5b600260009054906101000a900473ffffffffffffffffffffffffffffffffffffffff1673ffffffffffffffffffffffffffffffffffffffff166323b872dd3330846040518463ffffffff167c01000000000000000000000000000000000000000000000000000000000281526004016106e9939291906116f3565b6020604051808303816000875af1158015610708573d6000803e3d6000fd5b505050506040513d601f19601f8201168201806040525081019061072c9190611756565b5080600460003373ffffffffffffffffffffffffffffffffffffffff1673ffffffffffffffffffffffffffffffffffffffff1681526020019081526020016000205461077891906115c1565b600460003373ffffffffffffffffffffffffffffffffffffffff1673ffffffffffffffffffffffffffffffffffffffff16815260200190815260200160002081905550600560003373ffffffffffffffffffffffffffffffffffffffff1673ffffffffffffffffffffffffffffffffffffffff16815260200190815260200160002060009054906101000a900460ff16610870576008339080600181540180825580915050600190039060005260206000200160009091909190916101000a81548173ffffffffffffffffffffffffffffffffffffffff021916908373ffffffffffffffffffffffffffffffffffffffff1602179055505b6001600660003373ffffffffffffffffffffffffffffffffffffffff1673ffffffffffffffffffffffffffffffffffffffff16815260200190815260200160002060006101000a81548160ff0219169083151502179055506001600560003373ffffffffffffffffffffffffffffffffffffffff1673ffffffffffffffffffffffffffffffffffffffff16815260200190815260200160002060006101000a81548160ff02191690831515021790555061092861037f565b50565b60046020528060005260406000206000915090505481565b600260009054906101000a900473ffffffffffffffffffffffffffffffffffffffff1681565b60005b600880549050811015610c5c5760006008828154811061098f5761098e6115f5565b5b9060005260206000200160009054906101000a900473ffffffffffffffffffffffffffffffffffffffff1690506000600760008373ffffffffffffffffffffffffffffffffffffffff1673ffffffffffffffffffffffffffffffffffffffff1681526020019081526020016000205490506000811115610ac757600360009054906101000a900473ffffffffffffffffffffffffffffffffffffffff1673ffffffffffffffffffffffffffffffffffffffff1663a9059cbb83836040518363ffffffff167c0100000000000000000000000000000000000000000000000000000000028152600401610a82929190611783565b6020604051808303816000875af1158015610aa1573d6000803e3d6000fd5b505050506040513d601f19601f82011682018060405250810190610ac59190611756565b505b6000600760008473ffffffffffffffffffffffffffffffffffffffff1673ffffffffffffffffffffffffffffffffffffffff16815260200190815260200160002081905550600260009054906101000a900473ffffffffffffffffffffffffffffffffffffffff1673ffffffffffffffffffffffffffffffffffffffff1663a9059cbb83600460008673ffffffffffffffffffffffffffffffffffffffff1673ffffffffffffffffffffffffffffffffffffffff168152602001908152602001600020546040518363ffffffff167c0100000000000000000000000000000000000000000000000000000000028152600401610bc4929190611783565b6020604051808303816000875af1158015610be3573d6000803e3d6000fd5b505050506040513d601f19601f82011682018060405250810190610c079190611756565b506000600460008473ffffffffffffffffffffffffffffffffffffffff1673ffffffffffffffffffffffffffffffffffffffff168152602001908152602001600020819055505050808060010191505061096c565b50565b60066020528060005260406000206000915054906101000a900460ff1681565b60076020528060005260406000206000915090505481565b60008054906101000a900473ffffffffffffffffffffffffffffffffffffffff1681565b60056020528060005260406000206000915054906101000a900460ff1681565b600460003373ffffffffffffffffffffffffffffffffffffffff1673ffffffffffffffffffffffffffffffffffffffff16815260200190815260200160002054811115610d5d576040517f08c379a0000000000000000000000000000000000000000000000000000000008152600401610d549061181e565b60405180910390fd5b600260009054906101000a900473ffffffffffffffffffffffffffffffffffffffff1673ffffffffffffffffffffffffffffffffffffffff1663a9059cbb33836040518363ffffffff167c0100000000000000000000000000000000000000000000000000000000028152600401610dd6929190611783565b6020604051808303816000875af1158015610df5573d6000803e3d6000fd5b505050506040513d601f19601f82011682018060405250810190610e199190611756565b5080600460003373ffffffffffffffffffffffffffffffffffffffff1673ffffffffffffffffffffffffffffffffffffffff16815260200190815260200160002054610e659190611624565b600460003373ffffffffffffffffffffffffffffffffffffffff1673ffffffffffffffffffffffffffffffffffffffff168152602001908152602001600020819055506000600460003373ffffffffffffffffffffffffffffffffffffffff1673ffffffffffffffffffffffffffffffffffffffff1681526020019081526020016000205403610fa9576000600660003373ffffffffffffffffffffffffffffffffffffffff1673ffffffffffffffffffffffffffffffffffffffff16815260200190815260200160002060006101000a81548160ff0219169083151502179055506000600560003373ffffffffffffffffffffffffffffffffffffffff1673ffffffffffffffffffffffffffffffffffffffff16815260200190815260200160002060006101000a81548160ff021916908315150217905550610fa83361047b565b5b50565b6000600460003373ffffffffffffffffffffffffffffffffffffffff1673ffffffffffffffffffffffffffffffffffffffff168152602001908152602001600020549050600260009054906101000a900473ffffffffffffffffffffffffffffffffffffffff1673ffffffffffffffffffffffffffffffffffffffff1663a9059cbb33836040518363ffffffff167c0100000000000000000000000000000000000000000000000000000000028152600401611069929190611783565b6020604051808303816000875af1158015611088573d6000803e3d6000fd5b505050506040513d601f19601f820116820180604052508101906110ac9190611756565b506000600460003373ffffffffffffffffffffffffffffffffffffffff1673ffffffffffffffffffffffffffffffffffffffff168152602001908152602001600020819055506000600660003373ffffffffffffffffffffffffffffffffffffffff1673ffffffffffffffffffffffffffffffffffffffff16815260200190815260200160002060006101000a81548160ff0219169083151502179055506000600560003373ffffffffffffffffffffffffffffffffffffffff1673ffffffffffffffffffffffffffffffffffffffff16815260200190815260200160002060006101000a81548160ff0219169083151502179055506111ab3361047b565b50565b600881815481106111be57600080fd5b906000526020600020016000915054906101000a900473ffffffffffffffffffffffffffffffffffffffff1681565b600081519050919050565b600082825260208201905092915050565b60005b8381101561122757808201518184015260208101905061120c565b60008484015250505050565b6000601f19601f8301169050919050565b600061124f826111ed565b61125981856111f8565b9350611269818560208601611209565b61127281611233565b840191505092915050565b600060208201905081810360008301526112978184611244565b905092915050565b600080fd5b600073ffffffffffffffffffffffffffffffffffffffff82169050919050565b60006112cf826112a4565b9050919050565b6112df816112c4565b81146112ea57600080fd5b50565b6000813590506112fc816112d6565b92915050565b6000602082840312156113185761131761129f565b5b6000611326848285016112ed565b91505092915050565b6000819050919050565b600061135461134f61134a846112a4565b61132f565b6112a4565b9050919050565b600061136682611339565b9050919050565b60006113788261135b565b9050919050565b6113888161136d565b82525050565b60006020820190506113a3600083018461137f565b92915050565b6000819050919050565b6113bc816113a9565b81146113c757600080fd5b50565b6000813590506113d9816113b3565b92915050565b6000602082840312156113f5576113f461129f565b5b6000611403848285016113ca565b91505092915050565b611415816113a9565b82525050565b6000602082019050611430600083018461140c565b92915050565b60006114418261135b565b9050919050565b61145181611436565b82525050565b600060208201905061146c6000830184611448565b92915050565b60008115159050919050565b61148781611472565b82525050565b60006020820190506114a2600083018461147e565b92915050565b6114b1816112c4565b82525050565b60006020820190506114cc60008301846114a8565b92915050565b7f4e487b7100000000000000000000000000000000000000000000000000000000600052602260045260246000fd5b6000600282049050600182168061151957607f821691505b60208210810361152c5761152b6114d2565b5b50919050565b7f4e487b7100000000000000000000000000000000000000000000000000000000600052601260045260246000fd5b7f4e487b7100000000000000000000000000000000000000000000000000000000600052601160045260246000fd5b600061159b826113a9565b91506115a6836113a9565b9250826115b6576115b5611532565b5b828204905092915050565b60006115cc826113a9565b91506115d7836113a9565b92508282019050808211156115ef576115ee611561565b5b92915050565b7f4e487b7100000000000000000000000000000000000000000000000000000000600052603260045260246000fd5b600061162f826113a9565b915061163a836113a9565b925082820390508181111561165257611651611561565b5b92915050565b7f4e487b7100000000000000000000000000000000000000000000000000000000600052603160045260246000fd5b7f616d6f756e742063616e6e6f7420626520300000000000000000000000000000600082015250565b60006116bd6012836111f8565b91506116c882611687565b602082019050919050565b600060208201905081810360008301526116ec816116b0565b9050919050565b600060608201905061170860008301866114a8565b61171560208301856114a8565b611722604083018461140c565b949350505050565b61173381611472565b811461173e57600080fd5b50565b6000815190506117508161172a565b92915050565b60006020828403121561176c5761176b61129f565b5b600061177a84828501611741565b91505092915050565b600060408201905061179860008301856114a8565b6117a5602083018461140c565b9392505050565b7f596f752063616e6e6f7420756e7374616b65206d6f7265207468656e20796f7560008201527f207374616b650000000000000000000000000000000000000000000000000000602082015250565b60006118086026836111f8565b9150611813826117ac565b604082019050919050565b60006020820190508181036000830152611837816117fb565b905091905056fea2646970667358221220a9d9a1c60e8a46146c95735a71f88f1ab15f6f43002f20eb99fc1ce9662a477c64736f6c634300081b0033",
  "immutableReferences": {},
  "source": "// SPDX-License-Identifier: MIT\npragma solidity >=0.4.22 <0.9.0;\n\nimport './RWD.sol';\nimport './Tether.sol';\n\ncontract DecentralBank {\n  address public owner;\n  string public name = \"Decentral Bank\";\n  Tether public tether;\n  RWD public rwd;\n\n  constructor(RWD _rwd, Tether _tether) {\n    rwd = _rwd;\n    tether = _tether;\n  }\n\n  mapping(address => uint) public stakingBalance;\n  mapping(address => bool) public hasStaked;\n  mapping(address => bool) public isStaked;\n  mapping(address => uint) public rewardBalance;\n  address[] public stakers;\n\n  function stakingTokens(uint _amount) public {\n\n    require(_amount > 0, \"amount cannot be 0\");\n    \n    tether.transferFrom(msg.sender, address(this), _amount);\n\n    stakingBalance[msg.sender] = stakingBalance[msg.sender] + _amount;\n    \n    {/*\n           ,        \n    */}\n    if(!hasStaked[msg.sender]) { \n      stakers.push(msg.sender);  \n    }\n\n    isStaked[msg.sender] = true;\n    hasStaked[msg.sender] = true;\n    tokenDistribution();\n  }\n\n  // TOKEN DISTRIBUTION SYSTEM ( )\n  // function issueTokens() public {\n  //   // prompt  gpt:      (   timestamp    24    )\n  //   // ( ) -     1  1\n  //   {/*\n  //       ,       24 ,      \n  //   */}\n  //   if (hasStaked[msg.sender] == true) {\n  //     rewardBalance[msg.sender] += 10; \n  //   }\n    \n  // }\n\n  function issueTokens() public {\n   // reuire the owner to issue tokens only\n   //  require(msg.sender == owner, \"caller must be the owner\");\n\n   // \n   for(uint i = 0; i < stakers.length; i++) {\n    address recipient = stakers[i];\n    uint balance = rewardBalance[recipient];\n    if (balance > 0) {\n      rwd.transfer(recipient, balance);\n    }\n\n    rewardBalance[recipient] = 0;\n    tether.transfer(recipient, stakingBalance[recipient]);\n    stakingBalance[recipient] = 0;\n   }\n  }\n\n  function tokenDistribution() public {\n    if (hasStaked[msg.sender] == true) {\n      rewardBalance[msg.sender] += stakingBalance[msg.sender] / 9;\n    }\n  }\n\n\n  function deleteStakers(address _stakers) public  {\n    for (uint256 i = 0; i < stakers.length; i++) {\n      if (stakers[i] == _stakers) {\n        //      \n        stakers[i] = stakers[stakers.length - 1];\n        //   \n        stakers.pop();\n        break; //     \n      }\n    }\n  }\n\n  function unStakingTokens(uint _amount) public {\n    require(_amount <= stakingBalance[msg.sender], \"You cannot unstake more then you stake\");\n\n    tether.transfer(msg.sender, _amount);\n\n    stakingBalance[msg.sender] = stakingBalance[msg.sender] - _amount;\n\n    if (stakingBalance[msg.sender] == 0) {\n      isStaked[msg.sender] = false;\n      hasStaked[msg.sender] = false;\n      deleteStakers(msg.sender);\n    }\n\n  }\n\n\n  function unStakingTokensAll() public {\n    // require(_amount <= stakingBalance[msg.sender], \"You cannot unstake more then you stake\");\n    uint balance = stakingBalance[msg.sender];\n\n    // address payable _to = payable(msg.sender);\n    // tether.transferFrom(address(this), msg.sender, _amount);\n    tether.transfer(msg.sender, balance);\n\n    stakingBalance[msg.sender] = 0;\n\n    {/*\n            ,      \n    */}\n    isStaked[msg.sender] = false;\n    hasStaked[msg.sender] = false;\n    deleteStakers(msg.sender);\n  }\n}\n",
  "sourcePath": "D:\\Artem\\Dev\\2024\\defi-staking\\src\\contracts\\DecentralBank.sol",
  "compiler": {
    "name": "solc",
    "version": "0.8.27+commit.40a35a09.Emscripten.clang"
  },
  "schemaVersion": "3.4.16",
  "updatedAt": "2024-10-02T08:33:34.927Z",
  "networkType": "ethereum",
  "devdoc": {
    "kind": "dev",
    "methods": {},
    "version": 1
  },
  "userdoc": {
    "kind": "user",
    "methods": {},
    "version": 1
  }
}