{
  "contractName": "Migration",
  "abi": [
    {
      "inputs": [],
      "stateMutability": "payable",
      "type": "constructor",
      "payable": true
    },
    {
      "inputs": [],
      "name": "last_completed_megration",
      "outputs": [
        {
          "internalType": "uint256",
          "name": "",
          "type": "uint256"
        }
      ],
      "stateMutability": "view",
      "type": "function",
      "constant": true
    },
    {
      "inputs": [],
      "name": "owner",
      "outputs": [
        {
          "internalType": "address",
          "name": "",
          "type": "address"
        }
      ],
      "stateMutability": "view",
      "type": "function",
      "constant": true
    },
    {
      "inputs": [
        {
          "internalType": "uint256",
          "name": "_completed",
          "type": "uint256"
        }
      ],
      "name": "setCompleted",
      "outputs": [],
      "stateMutability": "nonpayable",
      "type": "function"
    },
    {
      "inputs": [
        {
          "internalType": "address",
          "name": "new_addres",
          "type": "address"
        }
      ],
      "name": "upgrade",
      "outputs": [],
      "stateMutability": "nonpayable",
      "type": "function"
    }
  ],
  "bytecode": "0x6080604052336000806101000a81548173ffffffffffffffffffffffffffffffffffffffff021916908373ffffffffffffffffffffffffffffffffffffffff1602179055506104be806100536000396000f3fe608060405234801561001057600080fd5b5060043610610069576000357c0100000000000000000000000000000000000000000000000000000000900480630900f0101461006e5780638da5cb5b1461008a578063913cec0e146100a8578063fdacd576146100c6575b600080fd5b61008860048036038101906100839190610327565b6100e2565b005b610092610202565b60405161009f9190610363565b60405180910390f35b6100b0610226565b6040516100bd9190610397565b60405180910390f35b6100e060048036038101906100db91906103de565b61022c565b005b60008054906101000a900473ffffffffffffffffffffffffffffffffffffffff1673ffffffffffffffffffffffffffffffffffffffff163373ffffffffffffffffffffffffffffffffffffffff1614610170576040517f08c379a000000000000000000000000000000000000000000000000000000000815260040161016790610468565b60405180910390fd5b60008190508073ffffffffffffffffffffffffffffffffffffffff1663fdacd5766001546040518263ffffffff167c01000000000000000000000000000000000000000000000000000000000281526004016101cc9190610397565b600060405180830381600087803b1580156101e657600080fd5b505af11580156101fa573d6000803e3d6000fd5b505050505050565b60008054906101000a900473ffffffffffffffffffffffffffffffffffffffff1681565b60015481565b60008054906101000a900473ffffffffffffffffffffffffffffffffffffffff1673ffffffffffffffffffffffffffffffffffffffff163373ffffffffffffffffffffffffffffffffffffffff16146102ba576040517f08c379a00000000000000000000000000000000000000000000000000000000081526004016102b190610468565b60405180910390fd5b8060018190555050565b600080fd5b600073ffffffffffffffffffffffffffffffffffffffff82169050919050565b60006102f4826102c9565b9050919050565b610304816102e9565b811461030f57600080fd5b50565b600081359050610321816102fb565b92915050565b60006020828403121561033d5761033c6102c4565b5b600061034b84828501610312565b91505092915050565b61035d816102e9565b82525050565b60006020820190506103786000830184610354565b92915050565b6000819050919050565b6103918161037e565b82525050565b60006020820190506103ac6000830184610388565b92915050565b6103bb8161037e565b81146103c657600080fd5b50565b6000813590506103d8816103b2565b92915050565b6000602082840312156103f4576103f36102c4565b5b6000610402848285016103c9565b91505092915050565b600082825260208201905092915050565b7f596f7520617265206e6f74206f776e6572210000000000000000000000000000600082015250565b600061045260128361040b565b915061045d8261041c565b602082019050919050565b6000602082019050818103600083015261048181610445565b905091905056fea2646970667358221220f175aee252b069fd8638e7d2665236ad266269c33a03fd02c66214d3470fd59264736f6c634300081b0033",
  "immutableReferences": {},
  "source": "// SPDX-License-Identifier: MIT\r\npragma solidity ^0.8.0;\r\n\r\ncontract Migration {\r\n    address public owner;\r\n    uint public last_completed_megration;\r\n\r\n    constructor() payable {\r\n        owner = msg.sender;\r\n        // last_completed_megration = 0;\r\n    }\r\n\r\n    modifier onlyOwner() {\r\n        require(msg.sender == owner, \"You are not owner!\");\r\n        _;\r\n    }\r\n\r\n    function setCompleted(uint _completed) public onlyOwner {\r\n        last_completed_megration = _completed;\r\n    }\r\n\r\n    function upgrade(address new_addres) public onlyOwner {\r\n        Migration upgraded = Migration(new_addres);\r\n        upgraded.setCompleted(last_completed_megration);\r\n    }\r\n}\r\n",
  "sourcePath": "D:\\Artem\\Dev\\2024\\Udemy\\defi-staking-app-starter\\defi-staking-app-starter\\src\\contracts\\Migration.sol",
  "compiler": {
    "name": "solc",
    "version": "0.8.27+commit.40a35a09.Emscripten.clang"
  },
  "schemaVersion": "3.4.16",
  "updatedAt": "2024-09-10T11:01:44.718Z",
  "networkType": "ethereum",
  "devdoc": {
    "kind": "dev",
    "methods": {},
    "version": 1
  },
  "userdoc": {
    "kind": "user",
    "methods": {},
    "version": 1
  }
}